:100000000C9462000C948A000C948A000C948A0070
:100010000C948A000C948A000C948A000C948A0038
:100020000C9437040C948A000C948A000C948A0077
:100030000C948A000C948A000C948A000C948A0018
:100040000C9495030C948A000C9405040C94DF0323
:100050000C948A000C948A000C948A000C948A00F8
:100060000C948A000C948A000000000024002700F1
:100070002A0000000000250028002B0000000008D6
:10008000000201000003040700000000000000005F
:1000900000000000230026002900040404040404D6
:1000A0000404020202020202030303030303010227
:1000B00004081020408001020408102001020408F6
:1000C0001020010511241FBECFEFD8E0DEBFCDBF49
:1000D00023E0A4E2B1E001C01D92A033B207E1F732
:1000E00011E0A0E0B1E0E0EEF7E102C005900D9272
:1000F000A432B107D9F710E0C2E6D0E004C02197DE
:10010000FE010E94E80BC136D107C9F70E944305E2
:100110000C94EE0B0C9400000F931F93CF93DF937E
:10012000E091F102F091F20240914501828510E0E8
:10013000481708F064C0142F117000914401011198
:100140004FC0842F90E0880F991FE80FF91F038498
:10015000F485E02D2CEE3FEF112311F024E130E087
:10016000C0914201D09143012C0F3D1FC90163E4AE
:1001700070E00E94D40BE617F70760F0C90168E24F
:1001800070E00E94D40B6F5F7F4F81E090E06E17AC
:100190007F0710F52C0F3D1FC90163E470E00E943A
:1001A000D40BE617F70750F0C90168E270E00E942F
:1001B000D40B6F5F7F4F6E177F0760F42C0F3D1FCE
:1001C000C90163E470E00E94D40BE617F707E8F476
:1001D0001FEF15C082E090E09093410180934001B1
:1001E0000F5F0093440180914001909141010817F5
:1001F000190628F0109244014F5F40934501812F6A
:10020000DF91CF911F910F910895C90168E270E0CD
:100210000E94D40B6F5F7F4F6E177F07C8F283E099
:1002200090E0DACFCF93DF93482FE091F102F09185
:10023000F20271969B012C5E3F4FC90163E470E0AE
:100240000E94D40BEB01C90168E270E00E94D40B5C
:100250006F5F7F4F80E090E0DC0120813181349638
:10026000880F991FAA1FBB1F2C173D0720F062178C
:10027000730708F08160415081F78093D602909314
:10028000D702A093D802B093D90281E0DF91CF9139
:100290000895833081F028F4813099F08230A9F0FC
:1002A00008958730A9F08830C9F08430B1F4809186
:1002B00080008F7D03C0809180008F7780938000C5
:1002C000089584B58F7784BD089584B58F7DFBCF65
:1002D0008091B0008F778093B00008958091B00036
:1002E0008F7DF9CF1F93CF93DF93282F30E0F90153
:1002F000E458FF4F8491F901E255FF4FD491F90181
:10030000E656FF4FC491CC23A9F0162F81110E940D
:100310004901EC2FF0E0EE0FFF1FEE58FF4FA591C3
:10032000B4918FB7F894EC91111108C0D095DE23E9
:10033000DC938FBFDF91CF911F910895DE2BF8CF13
:10034000CF93DF9390E0FC01E255FF4F2491865656
:100350009F4FFC0184918823D1F090E0880F991F72
:10036000FC01E859FF4FA591B491FC01EE58FF4FF5
:10037000C591D49161110EC09FB7F8948C91E22F72
:10038000E0958E238C932881E223E8839FBFDF9141
:10039000CF9108958FB7F894EC91E22BEC938FBF37
:1003A000F6CFA3EEB1E011968C931197282F30E091
:1003B000F901E255FF4FE4911496EC931497F9017B
:1003C000E656FF4FE491F0E0EE0FFF1FE057FF4FBE
:1003D0002591349113963C932E93129760E00C94E0
:1003E000A0011F93CF93DF93182FEB0161E00E94D0
:1003F000A001209739F460E0812FDF91CF911F9108
:100400000C947201CF3FD10511F461E0F5CFE12FDB
:10041000F0E0E458FF4FE491E33031F140F4E13093
:10042000B1F0E230E1F0C038D1057CF7E4CFE7303D
:1004300029F1E83059F1E430B1F780918000806211
:1004400080938000D0938B00C0938A0004C084B551
:10045000806884BDC7BDDF91CF911F91089584B599
:10046000806284BDC8BDF7CF809180008068809392
:100470008000D0938900C0938800EDCF8091B000B8
:1004800080688093B000C093B300E5CF8091B00046
:1004900080628093B000C093B400DDCF8E3008F04E
:1004A0008E508770806480937C0080917A00806495
:1004B00080937A0080917A0086FDFCCF809178004D
:1004C0009091790008953FB7F89480913C01909104
:1004D0003D01A0913E01B0913F0126B5A89B05C00A
:1004E0002F3F19F00196A11DB11D3FBFBA2FA92FB3
:1004F000982F8827BC01CD01620F711D811D911DB0
:1005000042E0660F771F881F991F4A95D1F708951B
:10051000AF92BF92CF92DF92EF92FF920F931F9311
:10052000CF93DF936C017B018B01040F151FEB014F
:100530005E01AE18BF08C017D10759F06991D60106
:10054000ED91FC910190F081E02DC6010995892B78
:1005500079F7C501DF91CF911F910F91FF90EF9037
:10056000DF90CF90BF90AF900895FC01538D448DE4
:10057000252F30E0842F90E0821B930B541710F04E
:10058000CF96089501970895FC01918D828D98175B
:1005900061F0A28DAE0FBF2FB11D5D968C91928D33
:1005A0009F5F9F73928F90E008958FEF9FEF089564
:1005B000FC01918D828D981731F0828DE80FF11D2D
:1005C000858D90E008958FEF9FEF0895FC01918D48
:1005D000228D892F90E0805C9F4F821B91098F7341
:1005E0009927089586E491E00E94E60221E0892B94
:1005F00009F420E0822F089580E090E0892B29F013
:100600000E94F20281110C9400000895FC01A48D57
:10061000A80FB92FB11DA35ABF4F2C91848D90E024
:1006200001968F739927848FA689B7892C93A08907
:10063000B1898C91837080648C93938D848D981391
:1006400006C00288F389E02D80818F7D8083089524
:10065000EF92FF920F931F93CF93DF93EC0181E012
:10066000888F9B8D8C8D98131AC0E889F9898081B9
:1006700085FF15C09FB7F894EE89FF896083E889EC
:10068000F98980818370806480839FBF81E090E0DE
:10069000DF91CF911F910F91FF90EF900895F62E6B
:1006A0000B8D10E00F5F1F4F0F731127E02E8C8D05
:1006B0008E110CC00FB607FCFACFE889F98980814A
:1006C00085FFF5CFCE010E940603F1CFEB8DEC0F35
:1006D000FD2FF11DE35AFF4FF0829FB7F8940B8F67
:1006E000EA89FB8980818062CFCFCF93DF93EC01D1
:1006F000888D8823B9F0AA89BB89E889F9898C910A
:1007000085FD03C0808186FD0DC00FB607FCF7CFC5
:100710008C9185FFF2CF808185FFEDCFCE010E94C5
:100720000603E9CFDF91CF9108951F920F920FB684
:100730000F9211242F933F938F939F93AF93BF9367
:100740008091380190913901A0913A01B0913B011B
:100750003091370123E0230F2D3758F50196A11D65
:10076000B11D209337018093380190933901A093F4
:100770003A01B0933B0180913C0190913D01A091E1
:100780003E01B0913F010196A11DB11D80933C0136
:1007900090933D01A0933E01B0933F01BF91AF9173
:1007A0009F918F913F912F910F900FBE0F901F90AF
:1007B000189526E8230F0296A11DB11DD2CF1F92D6
:1007C0000F920FB60F9211242F933F934F935F9385
:1007D0006F937F938F939F93AF93BF93EF93FF9309
:1007E00086E491E00E940603FF91EF91BF91AF91E3
:1007F0009F918F917F916F915F914F913F912F9139
:100800000F900FBE0F901F9018951F920F920FB66A
:100810000F9211242F938F939F93EF93FF93E09167
:100820005601F09157018081E0915C01F0915D01EA
:1008300082FD1BC0908180915F018F5F8F7320913B
:100840006001821741F0E0915F01F0E0EA5BFE4F4A
:10085000958F80935F01FF91EF919F918F912F91E1
:100860000F900FBE0F901F9018958081F4CF1F92AC
:100870000F920FB60F9211242F933F934F935F93D4
:100880006F937F938F939F93AF93BF93CF93EF9388
:10089000FF93E091E501F091E601C0818091E701CD
:1008A000C8238091E8019091E901019649F0809177
:1008B000E8019091E90101969093E9018093E801A4
:1008C0008091E30181111DC0C1116EC08091E801CA
:1008D0009091E9018536910578F01092EC018091B4
:1008E000E8019091E9019093EF018093EE0181E09E
:1008F0008093ED018093E3011092E9011092E801E9
:1009000053C08091E3018130A9F4CC2309F44CC099
:10091000E091ED018E0F8093ED018091E8019091BF
:10092000E901F0E0EE0FFF1FED51FE4F9487838742
:1009300082E0E0CF8091E301823009F053C0C11121
:1009400022C0E091ED0181E0E03768F08093EC0196
:1009500083E08093E301E091EA01F091EB013097AD
:1009600059F20995C9CF8E0F8093ED018091E8016E
:100970009091E901F0E0EE0FFF1FED51FE4F9487DB
:10098000838781E0B7CF8091E8019091E9018536B6
:10099000910550F083E08093E301E091EA01F0914A
:1009A000EB01309709F009958091FF02813041F405
:1009B0008091FE02C1111DC061E081111DC02D9A00
:1009C000FF91EF91CF91BF91AF919F918F917F91C7
:1009D0006F915F914F913F912F910F900FBE0F90AC
:1009E0001F9018958091E3018330F1F6C111DCCF9F
:1009F00083CF882321F060E00E947201E1CF2D981F
:100A0000DFCFCF93DF93E6E4F1E01382128288EE2A
:100A100093E0A0E0B0E084839583A683B78382E16E
:100A200091E09183808385EC90E09587848784ECC6
:100A300090E09787868780EC90E0918B808B81ECAB
:100A400090E0938B828B82EC90E0958B848B86EC8C
:100A500090E0978B868B118E128E138E148EC3EEC0
:100A6000D1E0D0932403C093230380E00E94D101FE
:100A70001092FE02D093F202C093F1028BE0DF915C
:100A8000CF910C94D101CF93DF93CDB7DEB7A1976F
:100A90000FB6F894DEBF0FBECDBF789484B58260E8
:100AA00084BD84B5816084BD85B5826085BD85B512
:100AB000816085BD80916E00816080936E00109290
:100AC000810080918100826080938100809181000B
:100AD000816080938100809180008160809380009C
:100AE0008091B10084608093B1008091B0008160FA
:100AF0008093B00080917A00846080937A00809126
:100B00007A00826080937A0080917A00816080937D
:100B10007A0080917A00806880937A001092C100F8
:100B2000E0915601F091570182E08083E0915201FB
:100B3000F09153011082E0915401F09155019FEC26
:100B4000908310925E01E0915A01F0915B0196E072
:100B50009083E0915801F0915901908190619083C8
:100B6000E0915801F0915901908198609083E09153
:100B70005801F0915901908190689083E09158015B
:100B8000F091590190819F7D90838093B000809374
:100B9000B10084E68093B3008093B4001092B20059
:100BA0008091E301833011F41092E30184E080939B
:100BB000700061E0809108010E94A00161E08091D5
:100BC00004010E94A00161E0809100010E94A00147
:100BD00060E080910C010E94A001CC24CA94DC2C1E
:100BE000760195E0292E312C20910C0130910D01D8
:100BF0003327F901E458FF4F8491F901E255FF4F83
:100C00000491F901E656FF4F1491112309F46AC0CB
:100C100081110E944901E12FF0E0EE0FFF1FE05724
:100C2000FF4FA591B491EC910E2309F45BC08EE0C7
:100C30000E944E0297FD0396BC01759567957595C8
:100C40006795809108010E94F1018FE00E944E0299
:100C500097FD0396BC01759567957595679580918D
:100C600004010E94F10180E10E944E0297FD03966B
:100C7000BC017595679575956795809100010E94F7
:100C8000F1010E9463024B015C0184E6482E512C65
:100C9000612C712C0E946302681979098A099B09E9
:100CA000683E734081059105A8F381E0481A510818
:100CB0006108710898EE890E93E0991EA11CB11C81
:100CC000411451046104710429F780E090E0892BFC
:100CD00009F48ACF0E94F202882309F482CF0E948D
:100CE00000007FCF8091E301833059F68091240189
:100CF000811103C081E0809324018EEE91E09093F6
:100D00003401809333018091ED01809335019091FE
:100D1000EC01992321F01092EC011092ED019091D9
:100D2000EC019093360110922B0110922C0110923D
:100D30002D0110922E0190E89093F0022091F00185
:100D40003091F101265831092C35310588F4843071
:100D500071F58091F2019091F3018197489740F4E9
:100D60008091F4019091F5010897089708F457C015
:100D7000809135018A3108F487C0E0913301F09108
:100D80003401208131812A30310508F05CC0109295
:100D90002F01C0922B01D0922C01E0922D01F092F4
:100DA0002E0181E08093F00287E190E047C0843417
:100DB000F9F68091F2019091F301825491098F9795
:100DC000B8F640E956E060E372E080E20E9412016A
:100DD000882371F2E0913301F0913401EA57FF4F1B
:100DE000808191810897089718F68091D60290919A
:100DF000D702A091D802B091D90280932B01909391
:100E00002C01A0932D01B0932E0180E280932F013D
:100E100088E090E090932801809327010FC0109202
:100E20002F01C0922B01D0922C01E0922D01F09263
:100E30002E0181E88093F00288E090E09093CF0249
:100E40008093CE02D2C022813381245231092A31CB
:100E50003105D0F443E050E060E0812C912C540146
:100E600090E04817590708F055C024813581285073
:100E700031092830310540F426813781223131058E
:100E800098F120323105D8F181E08093450189E75E
:100E900093E09093430180934201109244010E9499
:100EA0008C00813009F005C1812C912C540110E097
:100EB000E091F102F091F20292858091450189174B
:100EC00008F03FC00E948C00082F0E948C00011186
:100ED0002EC0813009F0EDC0880C991CAA1CBB1CE7
:100EE000689480F81F5FE4CF2930310568F2213122
:100EF000310550F6880C991CAA1CBB1C06C0880C36
:100F0000991CAA1CBB1C689480F86F5F4E5F5F4FF2
:100F10003496A7CF60932F0180922B0190922C01E1
:100F2000A0922D01B0922E0187E190E073CF0130A5
:100F300009F0BFC08111BDC0880C991CAA1CBB1C44
:100F4000D1CF812F90E09093EF028093EE028092B8
:100F5000D6029092D702A092D802B092D902882DE0
:100F60008F7390E09093D3028093D202940146E075
:100F7000369527954A95E1F72F7133273093D102A3
:100F80002093D002940122273071232B31F4805C0E
:100F90009F4F9093D3028093D20280E88093F00217
:100FA00093FE03C088E88093F00281E190E0909383
:100FB000CF028093CE02838594858F3C994028F49C
:100FC0008091F00281608093F00210932F01809253
:100FD0002B0190922C01A0922D01B0922E0181E163
:100FE00090E0909328018093270140912B0150912C
:100FF0002C0160912D0170912E0119A2FE01B19674
:10100000DB01CA018F709927AA27BB2794E0769548
:101010006795579547959A95D1F78A300CF08CC211
:10102000805D8293411551056105710549F730973F
:1010300069F0DF010D900020E9F71197AD014E1B1B
:101040005F0BBF0186E491E00E94880242E050E01D
:1010500060E271E086E491E00E94880280912B01B9
:1010600090912C01A0912D01B0912E018B3122E0A5
:10107000920722E8A20721E6B20709F4AFC28F3334
:101080002EEB920726E1A20727E9B20709F456C220
:10109000873F934EAA49BD4309F05EC260910601A5
:1010A00070910701809104010E94F10182E090E0BB
:1010B0004FC2E091F102F091F20285859685889702
:1010C0004D9708F046C0878590890C970B9708F0DC
:1010D00040C083E0809345018CEB91E09093430105
:1010E00080934201109244010E948C00813089F566
:1010F0000E948C0081112DC0812C912C540110E094
:10110000E091F102F091F2029285809145018917F8
:1011100008F06CC00E948C00782E1330B1F00E9451
:101120008C00082F133021F40E948C00081311C08A
:1011300081E0781251C001110CC0880C991CAA1CC6
:10114000BB1C689480F81F5FDBCF0E948C00781670
:1011500031F3809135018C3309F0A2C0E091330165
:10116000F091340182819381865891098D359105E2
:1011700008F096C084819581CE978C9708F090C036
:101180004CE256E064EF71E08CE10E94120188238A
:1011900009F486C0E0913301F0913401EA58FF4F21
:1011A000808191810797089708F07AC08091D602D4
:1011B0009091D702A091D802B091D90280932B01CF
:1011C00090932C01A0932D01B0932E018CE180937C
:1011D0002F0186E090E01ECE7110BBCF013009F0E8
:1011E000B8CF880C991CAA1CBB1CADCF812F90E0F6
:1011F0009093EF028093EE028092D6029092D702F3
:10120000A092D802B092D902282D30E0892D143254
:10121000A0F580E88093F0023093D3022093D202AD
:10122000892D90E09093D1028093D002A0FE03C05C
:1012300088E88093F002153128F08091F0028061F7
:101240008093F0028385948583379A4028F48091B7
:10125000F00281608093F00282E190E09093CF02EF
:101260008093CE0210932F0180922B0190922C013B
:10127000A0922D01B0922E01B4CE90E89093F0028E
:1012800097FE03C098E89093F0023093D302209326
:10129000D2028F7790E09093D1028093D002D2CF88
:1012A00040913501E0913301F091340182819381C5
:1012B000423289F49C01285031092730310558F415
:1012C000DF01AE5BBF4F2D913C9128503109273093
:1012D000310508F458C08D5791098735910508F4F8
:1012E00064C0E0913301F091340182819381835491
:1012F00091098F9780F480913501843009F08CC07A
:10130000848195818197489730F4868197810897E9
:10131000089708F4ABC0E091F102F091F2028285E7
:10132000823209F0B3C0E0913301F091340182813F
:1013300093810497059708F0A9C0848195810B9744
:101340000A9708F0A3C04CE157E064E071E08FE039
:101350000E941201882309F499C08091D6029091CD
:10136000D702A091D802B091D90280932B0190931B
:101370002C01A0932D01B0932E018FE080932F01BB
:1013800084E090E047CD10922F01C0922B01D092C3
:101390002C01E0922D01F0922E0181E08093F00269
:1013A0003092CF022092CE0220CE443208F499CF60
:1013B00084819581CE978C9708F093CF4AE256E0CE
:1013C0006EE072E080E10E941201882309F489CF67
:1013D000E0913301F0913401EA5BFF4F808191810C
:1013E0000897079708F07DCF8091D6029091D70299
:1013F000A091D802B091D90280932B0190932C0137
:10140000A0932D01B0932E0180E180932F013092A3
:10141000280120922701C4CF843408F47CCF848132
:101420009581825491098F9708F075CF40E956E075
:1014300060E372E080E20E941201882309F46BCF1E
:101440008091D6029091D702A091D802B091D90292
:1014500080932B0190932C01A0932D01B0932E012A
:1014600080E280932F0183E190E0D4CC10922F0191
:10147000C0922B01D0922C01E0922D01F0922E010E
:1014800081E08093F00283E190E0D8CC00913501B7
:10149000063008F49BC0E0913301F091340132969C
:1014A00025EC3DE94CE151E813E08AE0B82E848157
:1014B000958161917191B89E4001B99E900C112463
:1014C000DB01AA0FBB1FAA0FBB1FAA0FBB1FA12CBA
:1014D0008A169B0688F0B69ED001B79EB00D1124E7
:1014E00073E0880F991F7A95E1F762E0A62EA8179E
:1014F000B90710F0AA24A39463E971E080E091E0B9
:101500000E94AA0B9B01AC012A251F5F0113CFCFBC
:1015100020932B0130932C0140932D0150932E01E9
:1015200080E280932F0110922801109227011092DF
:10153000CF021092CE0259CD895C73CD60910A0121
:1015400070910B01809108010E94F10181E090E00F
:101550009093260180932501809125019091260189
:101560008130910509F05DC040912B0150912C0113
:1015700060912D0170912E0180910A0190910B01D3
:101580004F372DEB52072FEC620725EE720789F5D6
:101590008F3F91052CF44A9690930B0180930A019A
:1015A00080910A0190910B018F3F910539F034F041
:1015B0008FEF90E090930B0180930A0160910A01F4
:1015C00070910B01809108010E94F1018091E3016B
:1015D000833009F056CB1092E30153CB60910201A6
:1015E00070910301809100010E94F10183E090E07D
:1015F000AFCF4B3D5D4E684C734A01F71816190684
:101600002CF44A9790930B0180930A0180910A0170
:1016100090910B0197FFD2CF10920B0110920A010B
:10162000CDCF8230910509F049C040912B015091F6
:101630002C0160912D0170912E01809106019091F5
:1016400007014F372DEB52072FEC620725EE72078B
:10165000E9F48F3F91052CF44A969093070180930B
:10166000060180910601909107018F3F910539F0A5
:1016700034F08FEF90E09093070180930601609122
:10168000060170910701809104019ECF4B3D5D4E94
:10169000684C734AA1F7181619062CF44A979093D0
:1016A000070180930601809106019091070197FF41
:1016B000E6CF1092070110920601E1CF039709F0DF
:1016C00085CF40912B0150912C0160912D0170919B
:1016D0002E0180910201909103014F372DEB5207AB
:1016E0002FEC620725EE7207E9F48F3F91052CF489
:1016F0004A96909303018093020180910201909198
:1017000003018F3F910539F034F08FEF90E0909313
:1017100003018093020160910201709103018091A5
:10172000000152CF4B3D5D4E684C734AA1F718162D
:1017300019062CF44A97909303018093020180913B
:1017400002019091030197FFE6CF109203011092DE
:101750000201E1CFDB018F939F930E94BA0BBF91EF
:10176000AF91A29F800D911DA39F900DB29F900DF0
:10177000112408950E94C50BA59F900DB49F900D54
:10178000A49F800D911D11240895A29FB001B39FC5
:10179000C001A39F700D811D1124911DB29F700D7A
:1017A000811D1124911D0895AA1BBB1B51E107C087
:1017B000AA1FBB1FA617B70710F0A61BB70B881FE1
:1017C000991F5A95A9F780959095BC01CD01089570
:1017D000EE0FFF1F0590F491E02D0994F894FFCFD0
:1017E0000900B1000600B1000500B10002000000D0
:1017F000000028038802B5027503E602C402D8027D
:041800000D0A0000CD
:00000001FF
